{
  "contractName": "Destructible",
  "abi": [
    {
      "constant": true,
      "inputs": [],
      "name": "owner",
      "outputs": [
        {
          "name": "",
          "type": "address"
        }
      ],
      "payable": false,
      "stateMutability": "view",
      "type": "function"
    },
    {
      "inputs": [],
      "payable": true,
      "stateMutability": "payable",
      "type": "constructor"
    },
    {
      "anonymous": false,
      "inputs": [
        {
          "indexed": true,
          "name": "_currentOwner",
          "type": "address"
        },
        {
          "indexed": true,
          "name": "_newOwner",
          "type": "address"
        }
      ],
      "name": "LogOwnershipTransfered",
      "type": "event"
    },
    {
      "constant": false,
      "inputs": [],
      "name": "destroy",
      "outputs": [],
      "payable": false,
      "stateMutability": "nonpayable",
      "type": "function"
    },
    {
      "constant": false,
      "inputs": [
        {
          "name": "_recipient",
          "type": "address"
        }
      ],
      "name": "destroyAndSend",
      "outputs": [],
      "payable": false,
      "stateMutability": "nonpayable",
      "type": "function"
    }
  ],
  "bytecode": "0x6060604052336000806101000a81548173ffffffffffffffffffffffffffffffffffffffff021916908373ffffffffffffffffffffffffffffffffffffffff160217905550610259806100536000396000f300606060405260043610610057576000357c0100000000000000000000000000000000000000000000000000000000900463ffffffff16806383197ef01461005c5780638da5cb5b14610071578063f5074f41146100c6575b600080fd5b341561006757600080fd5b61006f6100ff565b005b341561007c57600080fd5b610084610194565b604051808273ffffffffffffffffffffffffffffffffffffffff1673ffffffffffffffffffffffffffffffffffffffff16815260200191505060405180910390f35b34156100d157600080fd5b6100fd600480803573ffffffffffffffffffffffffffffffffffffffff169060200190919050506101b9565b005b6000809054906101000a900473ffffffffffffffffffffffffffffffffffffffff1673ffffffffffffffffffffffffffffffffffffffff163373ffffffffffffffffffffffffffffffffffffffff1614151561015a57600080fd5b6000809054906101000a900473ffffffffffffffffffffffffffffffffffffffff1673ffffffffffffffffffffffffffffffffffffffff16ff5b6000809054906101000a900473ffffffffffffffffffffffffffffffffffffffff1681565b6000809054906101000a900473ffffffffffffffffffffffffffffffffffffffff1673ffffffffffffffffffffffffffffffffffffffff163373ffffffffffffffffffffffffffffffffffffffff1614151561021457600080fd5b8073ffffffffffffffffffffffffffffffffffffffff16ff00a165627a7a723058201059223dc0ecaf2cd5109d506c0a9d086bd40ecc8bfe6b8919c740bc2bb4c2aa0029",
  "source": "pragma solidity ^0.4.18;\r\n\r\nimport './Ownable.sol';\r\n\r\ncontract Destructible is Ownable {\r\n    \r\n    function Destructible() public payable { }\r\n\r\n    function destroy() public onlyOwner {\r\n        selfdestruct(owner);\r\n    }\r\n    \r\n    function destroyAndSend(address _recipient) public onlyOwner {\r\n        selfdestruct(_recipient);\r\n    }\r\n}",
  "sourcePath": "C:\\Users\\Shivesh Bhat\\p2p-lending\\smart-contracts\\contracts\\common\\Destructible.sol",
  "compiler": {
    "name": "solc",
    "version": "0.4.18+commit.9cf6e910.Emscripten.clang"
  },
  "schemaVersion": "3.4.16",
  "updatedAt": "2024-11-05T16:40:25.589Z",
  "networkType": "ethereum",
  "devdoc": {
    "methods": {}
  },
  "userdoc": {
    "methods": {}
  }
}