{
  "contractName": "Ownable",
  "abi": [
    {
      "constant": true,
      "inputs": [],
      "name": "owner",
      "outputs": [
        {
          "name": "",
          "type": "address"
        }
      ],
      "payable": false,
      "stateMutability": "view",
      "type": "function"
    },
    {
      "inputs": [],
      "payable": false,
      "stateMutability": "nonpayable",
      "type": "constructor"
    },
    {
      "anonymous": false,
      "inputs": [
        {
          "indexed": true,
          "name": "_currentOwner",
          "type": "address"
        },
        {
          "indexed": true,
          "name": "_newOwner",
          "type": "address"
        }
      ],
      "name": "LogOwnershipTransfered",
      "type": "event"
    }
  ],
  "bytecode": "0x6060604052341561000f57600080fd5b336000806101000a81548173ffffffffffffffffffffffffffffffffffffffff021916908373ffffffffffffffffffffffffffffffffffffffff16021790555060e78061005d6000396000f300606060405260043610603f576000357c0100000000000000000000000000000000000000000000000000000000900463ffffffff1680638da5cb5b146044575b600080fd5b3415604e57600080fd5b60546096565b604051808273ffffffffffffffffffffffffffffffffffffffff1673ffffffffffffffffffffffffffffffffffffffff16815260200191505060405180910390f35b6000809054906101000a900473ffffffffffffffffffffffffffffffffffffffff16815600a165627a7a7230582085aa1f4c48c8bf0679cac1ee1b83f9108d29339d9c618acce389381c269fc9940029",
  "source": "pragma solidity ^0.4.18;\r\n\r\n\r\ncontract Ownable {\r\n    address public owner;\r\n\r\n    event LogOwnershipTransfered(address indexed _currentOwner, address indexed _newOwner);\r\n\r\n    modifier onlyOwner() {\r\n        require(msg.sender == owner);\r\n        _;\r\n    }\r\n\r\n    function Ownable() public {\r\n        owner = msg.sender;\r\n    }\r\n\r\n    // @dev - The ownership shouldn't be transferrable. Otherwise it will mess up the members logic.\r\n    /* function transferOwnership(address _newOwner) public onlyOwner {\r\n         owner = _newOwner;\r\n         LogOwnershipTransfered(msg.sender, _newOwner);\r\n     } */\r\n}\r\n",
  "sourcePath": "C:\\Users\\Shivesh Bhat\\p2p-lending\\smart-contracts\\contracts\\common\\Ownable.sol",
  "compiler": {
    "name": "solc",
    "version": "0.4.18+commit.9cf6e910.Emscripten.clang"
  },
  "schemaVersion": "3.4.16",
  "updatedAt": "2024-11-05T16:40:25.591Z",
  "networkType": "ethereum",
  "devdoc": {
    "methods": {}
  },
  "userdoc": {
    "methods": {}
  }
}